:1000000018C032C031C030C02FC02EC02DC02CC08F
:100010002BC04DC029C028C027C026C025C024C081
:1000200023C022C021C0505F381A1792905E101270
:10003000BF0011241FBECFE5D4E0DEBFCDBF10E06E
:10004000A0E6B0E0E0E8F6E002C005900D92AA3626
:10005000B107D9F720E0AAE6B0E001C01D92A638AA
:10006000B207E1F787D10AC3CBCF87B38B7C87BBBD
:1000700088B3846388BB8FEF81BB87B3816C87BBF8
:1000800088B38E7388BBB99AC19A789480E090E067
:10009000D0D29093730080937200089583B78560E7
:1000A00083BF88EF82BF89B7816089BF08951F929F
:1000B0000F920FB60F9211248F939F9388EF82BFF8
:1000C000809169008150809369008091680081501F
:1000D00080936800809166008150809366008091D3
:1000E000640090916500019790936500809364008F
:1000F00080916900811108C08FE080936900809130
:100100006E00816080936E0080916800811108C04C
:1001100087E08093680080916E00826080936E001B
:1001200080916600811108C085E08093660080910F
:100130006E00886080936E008091640090916500ED
:10014000892B59F484EF91E09093650080936400CB
:1001500080916F00826080936F0080916700882398
:1001600071F08091670081508093670080916700F3
:10017000811105C080916E00846080936E00809133
:10018000620090916300892BA1F0809162009091B0
:1001900063000197909363008093620080916200F6
:1001A00090916300892B29F480916E008061809387
:1001B0006E008091600090916100892BA1F0809188
:1001C00060009091610001979093610080936000BE
:1001D0008091600090916100892B29F480916E00DC
:1001E0008F7780936E009F918F910F900FBE0F902D
:1001F0001F90189510927400B59B0AC0B29B0AC05C
:1002000010926B0080916E008E7F80936E00089537
:1002100091E001C092E080916B008E3130F081500E
:1002200080936B0090937400EDCF813011F4909324
:1002300074008F5F80936B00E5CF88B38E7388BBAB
:1002400080916A00811102C0C69A03C0813069F4AE
:10025000C79AE0916A00F0E0EB58FF4FE081F0E0D0
:10026000EA5DFF4FE491E2BB15C0823099F4C09A79
:10027000E0916A00F0E0EB58FF4FE081F0E0EA5DCA
:10028000FF4FE491E2BB80916F0080FF02C0949821
:1002900001C0949A80916A008F5F833018F4809334
:1002A0006A0002C010926A0080916E008D7F809378
:1002B0006E0083E080936700089588B38E7388BBD7
:1002C000EEE6F0E080818B7F8083089586B18668BA
:1002D00086B987B18F7387B9089597B19F7397B91E
:1002E00097B1987F97B997B1892B87B98AE18A9599
:1002F000F1F700C0369A349BFECF349A80916E009D
:10030000877F80936E0084B195B10895CF93DF937A
:10031000EC01E5E7F0E064E670E064D160832AE098
:1003200030E0CE01B9015ED1482FCB01B9015AD1DD
:1003300081834283DF91CF91089580916E0086FF83
:100340000CC0609172007091730080E090E076D1F3
:1003500080916E008F7B80936E0080916E008F7E07
:1003600080936E000895E5E7F0E08AE08083818362
:100370008283089593DEAADF78DEB49B11C0F3DF99
:1003800080916E0081FF06C080916F008E7F809308
:100390006F0053DF80916E0082FFEFCF8EDFEDCFD5
:1003A00080ED97E0909361008093600080916E00F3
:1003B000806880936E009EE0392ECAE0D0E028E38A
:1003C000422E512C08EB1BE030EDE32E37E0F32EEC
:1003D00044E6642E712C50E9C52EDD24D394B49BE1
:1003E00016C0C1DF80916F00846080936F008091A0
:1003F0006E0081FF06C080916F008E7F80936F003A
:100400001CDF80916E0082FFEACF57DFE8CF80913A
:100410006F0082FF05C080916F008B7F80936F001B
:1004200080916E0080FF3AC0E5DE809174008823E1
:10043000A9F1813071F4809172009091730001965E
:10044000813921E092077CF0D0927300C092720053
:1004500013C0823019F5809172009091730001975A
:10046000843691052CF0909373008093720004C041
:1004700070927300609272001093630000936200A8
:1004800080916E00806480936E00F0926100E09233
:10049000600080916E00806880936E0080916E0095
:1004A00083FF7BC080E019DF5C0190937100809333
:1004B00070002091720030917300329EC001339E13
:1004C000900D1124BE01A2D0FB0120917C0030913F
:1004D0007D002F5F3F4F30937D0020937C00809103
:1004E0006C0090916D008A0D9B1D90936D00809320
:1004F0006C002832310574F010927D0010927C005F
:10050000B20184D0709379006093780010926D00EE
:1005100010926C00EA19FB09F0938300E0938200CB
:1005200080917A0090917B009F01281B390B3093BA
:100530007F0020937E008090800090908100C40115
:10054000BE0164D06E0F7F1F220F331F260F371F8F
:1005500030938500209384008E0E9F1E9092810020
:1005600080928000F0937B00E0937A0080917C0081
:1005700090917D00281739072CF089EEA81683E0AA
:10058000B8062CF0C19A80916F008E7F04C0C1988C
:1005900080916F00816080936F0080916E0087FF73
:1005A00005C0809172009091730004C08091780022
:1005B00090917900ABDE80916E0081FD3EDE8091EE
:1005C0006E0082FD7ADE80916F0081FF05C0809110
:1005D0006F008D7F80936F0080916E0084FFFFCE4F
:1005E000ACDEFDCEAA1BBB1B51E107C0AA1FBB1F7F
:1005F000A617B70710F0A61BB70B881F991F5A95AF
:10060000A9F780959095BC01CD01089597FB072E21
:1006100016F4009406D077FD08D0E4DF07FC05D07F
:100620003EF4909581959F4F0895709561957F4F09
:100630000895A8E1B0E042E050E005C012D0272FB5
:1006400011C0DC01CB01FC01E199FECF06C0FFBB6C
:10065000EEBBE09A31960DB20D9241505040B8F782
:100660000895262FE199FECF9FBB8EBB2DBB0FB601
:10067000F894E29AE19A0FBE01960895F894FFCF9C
:0A068000D007B80BF4010503070FC3
:00000001FF
